:020000040800F2
:1000000000000120151D0008691C00086B1C000879
:100010006D1C00086F1C0008711C00080000000027
:10002000000000000000000000000000731C000839
:10003000751C000800000000771C0008791C0008EF
:10004000651D0008651D0008651D0008651D000888
:10005000651D0008651D0008651D0008651D000878
:10006000651D0008651D0008651D0008651D000868
:10007000651D0008651D0008651D0008651D000858
:10008000651D0008651D0008651D0008651D000848
:100090007D1C0008651D0008651D0008891C0008FE
:1000A000651D0008651D0008651D0008651D000828
:1000B000651D0008651D0008651D0008651D000818
:1000C000651D0008651D0008651D0008651D000808
:1000D000651D0008651D0008651D0008651D0008F8
:1000E000A31C0008651D0008651D0008651D0008AB
:1000F000651D0008651D0008651D0008651D0008D8
:10010000651D00080000000000000000651D0008DB
:10011000651D0008651D0008651D0008651D0008B7
:10012000651D0008651D0008651D0008651D0008A7
:10013000651D0008651D00080000000000000000AB
:10014000651D0008651D0008651D00080000000011
:10015000000000000000000000000000000000009F
:10016000651D0008651D0008651D0008651D000867
:10017000651D0008651D0008651D0008651D000857
:10018000651D0008651D000800000000000000005B
:04019000651D0008E1
:1001940010B5054C237833B9044B13B10448AFF3BD
:1001A40000800123237010BD100000200000000017
:1001B400C01D000808B5034B1BB103490348AFF346
:1001C400008008BD0000000014000020C01D0008CD
:1001D40038B50E4A0E4B054618784FF47A73B3FBC4
:1001E400F0F31068B0FBF3F000F090FB044658B94C
:1001F4000F2D09D8024629464FF0FF3000F046FB88
:10020400044B20461D6038BD012038BD0C00002081
:100214000000002004000020074A08B5136843F0DA
:1002240010031360032000F01FFB0020FFF7D0FF32
:1002340001F092FC002008BD00200240034A044B58
:1002440011681B780B441360704700BF3000002016
:1002540000000020014B1868704700BF30000020E8
:1002640038B50446FFF7F6FF631C1CBF054B1B782B
:10027400054618BFE418FFF7EDFF401B8442FAD887
:1002840038BD00BF0000002038B5044600286ED0F9
:1002940090F820300BB901F07BFC2268136823F03E
:1002A40002031360FFF7D6FF054623685A689107D7
:1002B40051D41A6842F001021A60FFF7CBFF0546D9
:1002C40023685A68D20754D5227E012A1A680CBFC3
:1002D40042F0800222F080021A60627E012A1A68CB
:1002E4000CBF42F0400222F040021A60A27E012AB2
:1002F4001A680CBF42F0200222F020021A60E27E4B
:10030400012A1A680CBF22F0100242F010021A608F
:10031400227F012A1A680CBF42F0080222F0080268
:100324001A60627F012A1A680CBF42F0040222F0AC
:1003340004021A60E168A2680A4321690A436169F8
:100344000A43616801390A43DA61002001236062CB
:1003540084F8203038BDFFF77DFF401B0A28A4D95C
:10036400636A43F400336362052384F82030012078
:1003740038BDFFF76FFF401B0A28A1D9F0E790F8BA
:100384002030013B012B70B55FD803684869D3F86E
:10039400002242F00102C3F80022012400F01F02EF
:1003A400D3F81C5204FA02F2D4432540C3F81C5279
:1003B400CD6985BBD3F80C52CE682540C3F80C52E6
:1003C4008D8803EBC00045EA0645C0F840528E68AC
:1003D4000D8845EA0645C0F84452886968BBD3F8DD
:1003E40004022040C3F80402086950BBD3F8140285
:1003F4002040C3F81402096A012902BFD3F81C1271
:100404000A43C3F81C22D3F8002222F00102C3F8E5
:100414000022002070BD012DDFD1D3F80C520E68EC
:100424001543C3F80C528D8803EBC00045EA06451A
:10043400C0F840528E688D89CBE7D3F8040210438C
:10044400D0E7D3F814021043D3E7436A43F480237C
:100454004362012070BD38B590F82030012B04466A
:100464001FD10268022380F82030136823F00103AF
:100474001360FFF7EFFE05462368586810F001008B
:1004840001D1606238BDFFF7E5FE401B0A28F3D9AD
:10049400636A43F400336362052384F82030012047
:1004A40038BD436A43F400234362F8E7F0B590F89B
:1004B40020500668013D012DB46840D814F0E05F77
:1004C40039D0C4F30164032C4FF0010505D1436A0C
:1004D40043F4000343620120F0BDA5401D60886819
:1004E400CF6804F1180308BB086847EA40501B01B1
:1004F4002401F05033190869097DC3F884010129E6
:1005040002BFD3F8841141F48071C3F884113444D8
:100514005168C4F88C111268C4F88821D3F880217A
:1005240042F00102C3F880210020F0BD4D68384339
:1005340040EAC500DBE7436A43F40013CAE7436AB1
:1005440043F48023C6E7F0B590F82040013C012C29
:100554006BD8066841B9F468A40707D1436A43F429
:10056400001343620120F0BD3469F5E70C0135192D
:10057400D5F8B07107F004079760002F4BD1D5F878
:10058400B0717F0D1760D5F8B071C7F34007D7601D
:10059400D5F8B47107F00F071761D5F8B471D5F821
:1005A400B4512644C7F307272D0C97615561D6F83B
:1005B400B8211A7002682244D2F8B821120A5A707B
:1005C40002682244D2F8B821120C9A7002682244BC
:1005D400D2F8B821120EDA7002682244D2F8BC2193
:1005E4001A7102682244D2F8BC21120A5A710268B4
:1005F4002244D2F8BC21120C9A7102681444D4F833
:10060400BC21120EDA71036851B9DA6842F0200293
:10061400DA600020F0BDD5F8B071FF085760B2E78A
:100624001A6942F020021A61F3E7436A43F4802313
:1006340097E790F82030013B012B05D802685369F5
:100644001943516100207047436A43F48023436295
:100654000120704770477047704770477047704774
:100664007047704770477047704770472DE9F84FDF
:1006740003685E69D3F804909F68D3F80CB0D3F88C
:1006840010A0D3F8188016F00104054622D017F004
:10069400010407D00122B9079A6040F1A380FFF753
:1006A400D9FF0024FB0509D52B684FF48072B805E7
:1006B4009A6040F1A5802846FFF7CDFFFB0309D5DA
:1006C4002B684FF48032B8039A6040F1A780284623
:1006D400FFF7C2FF330707D51BF0100F1FBF2B68AE
:1006E400102244F40074DA60770708D51BF0080F71
:1006F40005D02B680822DA602846FFF7B1FFB0075F
:1007040006D52B68DB68990702D0284601F0F8F972
:10071400720607D51AF0100F1FBF2B68102244F47D
:1007240080641A61B30608D51AF0080F05D02B6847
:1007340008221A612846FFF795FFF70606D52B68AD
:100744001B69980702D02846FFF78BFFB10308D531
:1007540019F0100F05D02B6810225A602846FFF7B5
:1007640082FFF20308D519F0080F05D02B68082280
:100774005A602846FFF778FF33042AD519F0040F8E
:100784002A6824D0F70504D518F0010F18BF44F0E7
:100794000104B00504D518F0020F18BF44F0020498
:1007A400710504D518F0040F18BF44F00404330590
:1007B4000DD518F070030AD0302B4CD03CD8102B38
:1007C40043D0202B44D0936923F070039361042316
:1007D40053602CB16B6A1C436C622846FFF745FFDB
:1007E400BDE8F88F7A0705D417F0080405D1FFF7A0
:1007F40034FF57E74FF4006454E74FF4805451E753
:10080400790502D544F4005458E73A0502D544F476
:10081400804453E72846FFF721FF4FE7790302D5C9
:1008240044F4004456E73A0302D544F4803451E7D3
:100834002846FFF714FF4DE7502B0FD0602B10D044
:10084400402BC0D144F04004BDE744F00804BAE7AB
:1008540044F01004B7E744F02004B4E744F0800403
:10086400B1E744F48074AEE7074AD36823F4E06345
:100874001B041B0C43F0BF63000243F4003300F479
:10088400E0600343D360704700ED00E0174B30B5E0
:10089400DC68C4F30224C4F10703251D042B28BF1C
:1008A4000423062D4FF0010505FA03F303F1FF338A
:1008B4008CBF033C00241940A14005FA04F4013C18
:1008C4002240002842EA01024FEA0212AFBF00F1BF
:1008D400604000F00F00064BD2B2A5BF00F56140A6
:1008E400D2B21A5480F8002330BD00BF00ED00E0FE
:1008F40014ED00E04209012300F01F0003FA00F0A8
:10090400014B43F82200704700E100E00138B0F1E8
:10091400807F0AD2064B074A5860F02182F82310E0
:100924000020072298601A6070470120704700BFBA
:1009340010E000E000ED00E02DE9F74FD1F8008071
:10094400DFF89091614A002338FA03F402D103B02E
:10095400BDE8F08F4FF0010E0EFA03FE18EA0E0602
:1009640000F0A6804C6824F01007022F16D14FEA3D
:10097400D30A00EB8A0A03F0070BDAF820504FEA97
:100984008B0B4FF00F0C0CFA0BFC25EA0C0C0D69C9
:1009940005FA0BF545EA0C05CAF820504FEA430A5C
:1009A4000325D0F800B005FA0AF5ED4304F0030C72
:1009B4000BEA050B0CFA0AFC013F4CEA0B0C012F65
:1009C400C0F800C011D8876807EA050BCF6807FA9A
:1009D4000AFC4CEA0B078760476827EA0E0EC4F34B
:1009E40000179F4047EA0E074760C7683D408F687D
:1009F40007FA0AF73D43C560E50059D5D9F8185000
:100A040045F00105C9F81850D9F8185023F0030728
:100A140007F1804705F0010507F58037019503F0DC
:100A2400030C019DBD684FEA8C0C4FF00F0E0EFABB
:100A34000CFEB0F1904F25EA0E0E3BD0244DA84297
:100A44003AD005F58065A84238D005F58065A842FE
:100A540036D005F58065A84234D005F58065A842F6
:100A640032D005F58065A84214BF0725062505FA8E
:100A74000CF545EA0E05BD601568F74314F4803F94
:100A84000CBF3D4035431560556814F4003F0CBF5E
:100A94003D4035435560956814F4801F0CBF3D40BC
:100AA40035439560D568A40254BF3D403543D560B5
:100AB400013349E70025DAE70125D8E70225D6E71F
:100AC4000325D4E70425D2E70525D0E70004014037
:100AD40000040048001002400AB18161704781623D
:100AE40070474369594041617047000008B5044BA1
:100AF4005969014202D0586101F00CF808BD00BFE9
:100B0400000401402DE9F347054618B9012002B05D
:100B1400BDE8F0870368DF0711D42B689E0700F156
:100B240088802B681C0700F1FC802B68580700F1B3
:100B34004581AA69002A40F0DC810020E7E7BD4C2A
:100B4400636803F00C03042B0AD0636803F00C03FE
:100B5400082B19D1636803F4C033B3F5803F13D174
:100B64004FF4003393FAA3F2216893FAA3F3B3FA90
:100B740083F303F01F03012202FA03F30B42CCD0E8
:100B84006B68002BC9D1C1E76B68B3F5803F1ED1F8
:100B9400236843F480332360FFF75CFB4FF4003693
:100BA4008046012796FAA6F3226896FAA6F3B3FACA
:100BB40083F303F01F0307FA03F31342ADD1FFF7E6
:100BC40049FBA0EB08006428ECD903209FE70BBB8A
:100BD400236823F480332360236823F48023236071
:100BE400FFF738FB4FF400368046012796FAA6F348
:100BF400226896FAA6F3B3FA83F303F01F0307FA05
:100C040003F3134289D0FFF725FBA0EB0800642807
:100C1400ECD9DAE7B3F5A02F236803D143F480239A
:100C24002360B5E723F480332360236823F480230F
:100C3400B1E7804C636813F00C0F0AD0636803F0CB
:100C44000C03082B25D1636803F4C033B3F5004FBC
:100C54001FD1022393FAA3F2216893FAA3F3B3FA00
:100C640083F303F01F03012202FA03F30B4203D0C0
:100C7400EB6893427FF44AAF2168F82393FAA3F315
:100C8400B3FA83F22B69934021F0F80213432360F3
:100C940047E7EA6801260AB396FAA6F3B3FA83F3A0
:100CA40003F1845303F584139B0002271E60FFF7AE
:100CB400D1FA804697FAA7F3226897FAA7F3B3FA12
:100CC40083F303F01F0306FA03F31342D4D1FFF7AF
:100CD400C1FAA0EB08000228ECD976E796FAA6F34D
:100CE400B3FA83F303F1845303F584139B000227BF
:100CF4001A60FFF7AFFA804697FAA7F3226897FACB
:100D0400A7F3B3FA83F303F01F0306FA03F31342C2
:100D14003FF407AFFFF79EFAA0EB08000228EBD9D7
:100D240053E76A69434E444901241AB394FAA4F37D
:100D3400B3FA83F30B449B0002271C60FFF78AFA83
:100D4400804697FAA7F397FAA7F397FAA7F3726A7C
:100D540097FAA7F3B3FA83F303F01F0304FA03F338
:100D640013427FF4E2AEFFF775FAA0EB0800022805
:100D7400E7D92AE794FAA4F3B3FA83F30B449B006C
:100D840002271A60FFF766FA804697FAA7F397FAE4
:100D9400A7F397FAA7F3726A97FAA7F3B3FA83F360
:100DA40003F01F0304FA03F313423FF4BEAEFFF74C
:100DB40051FAA0EB08000228E7D906E71D4CE369C5
:100DC400D90034D4E36943F08053E361E36903F069
:100DD40080530193019B0126184F3B68DA052FD5F8
:100DE400AB68012B3DD1236A43F001032362FFF773
:100DF40031FA02278246B9464FF0010897FAA7F361
:100E040097FAA7F3002B6CD0226A99FAA9F3B3FAE4
:100E140083F303F01F0308FA03F3134258D0002EA0
:100E24003FF487AEE36923F08053E36181E6002653
:100E3400D2E700BF001002402081901000700040F3
:100E44003B6843F480733B60FFF704FA80463B68D9
:100E5400DB05C5D4FFF7FEF9A0EB08006428F6D93A
:100E6400B3E63BBB236A23F001032362236A23F026
:100E740004032362FFF7EEF902278246B9464FF0D6
:100E8400010897FAA7F397FAA7F373B3226A99FABA
:100E9400A9F3B3FA83F303F01F0308FA03F313422D
:100EA400BDD0FFF7D7F941F28833A0EB0A0098428E
:100EB400E7D98AE6052B236A03D143F004032362AE
:100EC40091E723F001032362236A23F004038DE7EF
:100ED400FFF7C0F941F28833A0EB0A0098428DD99C
:100EE40073E697FAA7F3626A8FE797FAA7F3626A41
:100EF400CDE7444C636803F00C03082B3FF406AEC3
:100F0400022A4FF0807358D193FAA3F3B3FA83F310
:100F140003F1845303F584139B0000221A60FFF746
:100F240099F94FF000778046012697FAA7F32268D3
:100F340097FAA7F3B3FA83F303F01F0306FA03F354
:100F4400134233D1E36A6A6A23F00F031343E36263
:100F540062682B6AE96922F476120B4313436360D7
:100F64004FF0807393FAA3F3B3FA83F303F184533A
:100F740003F584139B004FF000751E60FFF76AF9B8
:100F84000126074695FAA5F3226895FAA5F3B3FA64
:100F940083F303F01F0306FA03F313427FF4CDAD8A
:100FA400FFF758F9C01B0228ECD90EE6FFF752F9F7
:100FB400A0EB08000228B8D907E693FAA3F3B3FA22
:100FC40083F303F1845303F584139B0000221A6016
:100FD400FFF740F94FF000750746012695FAA5F38F
:100FE400226895FAA5F3B3FA83F303F01F0306FA14
:100FF40003F313423FF4A1ADFFF72CF9C01B022801
:10100400ECD9E2E50010024011494B6803F00C02F0
:10101400082A1AD14FF4701292FAA2F20F20B2FAEF
:1010240082F2C96A90FAA0F0B0FA80F001F00F01E0
:1010340003F47013D340C140064A0748415C074893
:10104400B0FBF1F1D05C484370470448704700BFDF
:1010540000100240D81D0008E81D000800127A00A4
:101064002DE9F0410D46044610B90120BDE8F08198
:101074004C4A136803F007038B422ED3226891076E
:1010840036D4D2073CD4474A136803F007039D4281
:1010940075D32268444D12F0040F7CD1130706D592
:1010A4006B68226923F4605343EAC2036B60FFF761
:1010B400ABFF6B68F02292FAA2F2B2FA82F203F06A
:1010C400F003D340394AD35CD840394B1860002030
:1010D400FFF77EF80020BDE8F081136823F00703D2
:1010E4000B431360136803F007039942BDD1C5E7AE
:1010F4002D49A0684B6823F0F00303434B60C0E71D
:101104006268294E012A27D14FF4003393FAA3F1E0
:10111400316893FAA3F3B3FA83F303F01F0302FADB
:1011240003F30B42A1D0736823F003031A437260E4
:10113400FFF790F841F2883807467368626803F055
:101144000C03B3EB820F9ED0FFF784F8C01B40451D
:10115400F3D90320BDE8F081022A0CBF4FF00073DD
:10116400022393FAA3F1306893FAA3F3B3FA83F357
:1011740003F01F03012101FA03F30342D2E71368CA
:1011840023F007032B431360136803F007039D4206
:101194007FF46BAF7DE76B68E16823F4E0630B4396
:1011A4006B607BE70020024000100240FC1D000839
:1011B4000C000020084B4FF4E0625B6892FAA2F244
:1011C400B2FA82F203F4E063D340044AD35C044AE3
:1011D4001068D840704700BF001002400C1E000881
:1011E4000C000020084B4FF460525B6892FAA2F2A4
:1011F400B2FA82F203F46053D340044AD35C044A43
:101204001068D840704700BF001002400C1E000850
:101214000C00002003682DE9F347DF03044623D5BF
:101224009B4DEB69DE0000F1D780EB6943F08053FE
:10123400EB61EB6903F080530193019B0126954F09
:101244003B68D80540F1CA802B6A13F4407340F020
:10125400DA802B6A626823F4407313432B621EB155
:10126400EB6923F08053EB612068C30706D5884AF5
:10127400A168136B23F003030B431363870706D59D
:10128400834AE168136B23F440330B43136346072B
:1012940006D57F4A2169136B23F440230B43136360
:1012A400850606D57A4AE169136B23F010030B43D4
:1012B4001363810306D5764A616D536823F4800372
:1012C4000B435360420606D5714A216A136B23F01F
:1012D40020030B431363430306D56D4A616A136B02
:1012E40023F040030B431363070706D5684A61697B
:1012F400136B23F440130B431363C60606D5644AE9
:10130400A169136B23F440030B431363850506D5CE
:101314005F4A216B536823F400030B4353600106B7
:1013240006D55B4AA16AD36A23F4F8730B43D362EC
:10133400C20506D5564AE16AD36A23F478530B43AF
:10134400D362C30406D5524A616B136B23F48073D2
:101354000B431363870406D54D4A216C136B23F4A6
:1013640000730B431363C60206D5494AA16B136B82
:1013740023F080730B431363850206D5444AE16B63
:10138400136B23F000730B431363410206D5404AE9
:10139400616C136B23F480630B431363020206D561
:1013A4003B4AA16C136B23F400630B431363C30127
:1013B40006D5374AE16C136B23F400530B431363D4
:1013C40010F000701CD0324A216D136B23F40043DB
:1013D4000B431363002013E0002630E73B6843F41B
:1013E40080733B60FEF736FF80463B68D9053FF5C6
:1013F4002BAFFEF72FFFA0EB08006428F5D90320DC
:1014040002B0BDE8F087626802F4407293423FF490
:1014140020AF296A4FF4803321F4407093FAA3F289
:10142400DFF874E0B2FA82F2724492000127176086
:1014340093FAA3F3B3FA83F373449B0000221A6074
:10144400CA0728627FF505AFFEF704FF4FF00208D4
:101454008246C14698FAA8F398FAA8F3A3B12A6A77
:1014640099FAA9F3B3FA83F303F01F0307FA03F31A
:1014740013427FF4EEAEFEF7EDFE41F28833A0EBAB
:101484000A009842E6D9BAE798FAA8F36A6AE7E745
:1014940000100240007000400081901038B50446EE
:1014A40005682169A268C36928680A4361690A4317
:1014B40077491A4301400A432A606A68E168206A4E
:1014C40022F440520A436A60A968A26921F4306197
:1014D40002430A43AA606F4A954212D102F5584268
:1014E4006D49126B02F00302B3F5004F8A5C66D0BB
:1014F400082A19D8DFE802F0C2929E18A918181811
:10150400AC00664A954224D102F5E632126B02F42D
:101514004032B2F5803F00F0A08007D8002A00F0E6
:10152400AA80B3F5004F76D0012038BDB2F5003F54
:1015340000F09980B2F5403FF3D1B3F5004F79D173
:101544006068430803F5740303F51053B3FBF0F329
:1015540054E0534A95420ED102F5E432126B02F480
:101564004022B2F5802F78D0D8D9B2F5002F7AD0A6
:10157400B2F5402FE0E74B4A95420ED102F5E23234
:10158400126B02F44012B2F5801F66D0C6D9B2F5D0
:10159400001F68D0B2F5401FCEE7434A9542C0D140
:1015A40002F5E032126B02F44002B2F5800F54D01F
:1015B400B4D9B2F5000F56D0B2F5400FBCE7082AF3
:1015C40029D801A353F822F0F115000815160008D4
:1015D400451500081B160008651600081B160008B0
:1015E4001B1600081B16000871160008FFF7E2FD21
:1015F40061684A0802EB4003B3FBF1F39BB200209D
:1016040023F00F022168C3F342031343CB6038BDB8
:10161400FFF7E8FDECE701200023F1E7FFF7E2FD27
:10162400636800EB5300B0FBF3F01A4B80B2D86050
:10163400002038BD6268530803F5F40303F59053A2
:10164400B3FBF2F39BB2EB60F2E7FFF7DDFC17E0CC
:101654006268530803F50043F2E7B3F5004FF4D191
:10166400FFF7D2FCC4E7B3F5004FF1D1606843083B
:1016740003F580336AE7B3F5004FB7D0FFF79AFD5F
:10168400636800EB5300B0FBF3F080B2E860CFE78F
:10169400F369FFEF00380140F81D000800440040E2
:1016A40000480040004C004000500040436ADA0704
:1016B40010B506D50168846A4A6822F400322243D0
:1016C4004A609C0706D50168C46A4A6822F48032DD
:1016D40022434A60590706D50168046B4A6822F41C
:1016E400802222434A601A0706D50168446B4A687F
:1016F40022F4004222434A60DC0606D50168846B6A
:101704008A6822F4805222438A60990606D50168C9
:10171400C46B8A6822F4005222438A605A060FD5A9
:101724000168046C4A6822F480122243B4F5801FD5
:101734004A6005D14A68446C22F4C00222434A60DC
:101744001B0606D50268816C536823F400230B43FF
:10175400536010BD2DE9F041069D04460F46164620
:1017640098462168CA6937EA02030CBF01220022A5
:10177400B24202D00020BDE8F0816B1CF2D09DB9CA
:1017840023681A6822F4D0721A609A6822F001025F
:101794009A60202384F8693084F86A30002384F83E
:1017A40068300320BDE8F081FEF754FDA0EB08008B
:1017B4008542D6D2E4E773B504460026C666FEF732
:1017C40049FD23681B681A07054617D423681B685C
:1017D4005B070AD56FF07E43009300222B464FF43B
:1017E40080012046FFF7B6FFA0B92023002084F82B
:1017F400693084F8680084F86A300CE06FF07E4346
:101804000093324603464FF400112046FFF7A2FF2F
:101814000028DBD0032002B070BD10B5044660B3CD
:1018240090F8693003F0FF021BB980F8682000F0DB
:10183400E9F92268242384F86930136823F001034A
:1018440013602046FFF72AFE012816D0636A13B1FD
:101854002046FFF72BFF23685A6822F490425A600F
:101864009A6822F02A029A601A6842F0010220461D
:101874001A60BDE81040FFF79EBF012010BD30B5CF
:10188400A7B02822002106A800F090FA1422002113
:1018940001A800F08BFA5822002110A800F086FA63
:1018A4000123099310230A934FF4004302240D9358
:1018B40006A84FF4E0130E9306940C94FFF722F954
:1018C4000F230025019321464FF4806301A804935C
:1018D400029403950595FFF7C3FB10A81094139584
:1018E400FFF798FC27B030BDF0B58FB0FEF794FC3D
:1018F400FFF7C5FF1422002104A800F057FA734B28
:10190400734D5A6942F400225A615A6902F4002262
:101914000092009A5A6942F480025A615A6902F4A8
:1019240080020192019A5A6942F400325A615A695A
:1019340002F400320292029A5A6942F480225A61F5
:101944005B6903F480230022039320214FF090402D
:10195400039BFFF7C1F842F260130024049304A927
:101964005C4B5D480593012606942027FEF7E4FFAF
:1019740004A94FF090400596069407940497FEF747
:10198400DBFF04A94FF09040049605960694079453
:10199400FEF7D2FF224621461720FEF777FF1720D5
:1019A400FEF7A8FF214622462820FEF76FFF2820D5
:1019B400FEF7A0FF49484A4A84604FF4164380E882
:1019C4000C000C23C460046143618461C46104623B
:1019D4004462FFF722FF434BAC6085E888004FF474
:1019E40040332B6128464FF440136B61EC602C7636
:1019F4006C76AC76EC762C776C77FEF745FC04A914
:101A040028460994049405940694079408940A9427
:101A14000B960C960D94FEF7B2FC2846FEF71BFDC0
:101A240028460221FEF705FE2F4B304D9C605C607A
:101A34004FF48072DC601C752D4C1E611A602E46BA
:101A44002B78052B16D120214FF09040FFF749F851
:101A54004FF4FA60FEF704FC00231A46F2540133F3
:101A6400082BFBD14FF090402021FFF73AF8642077
:101A7400FEF7F6FB2378012B18D120214FF090407C
:101A8400FFF72FF84FF4FA60FEF7EAFB194B1A4AF6
:101A94001B7813701449194B0D48FEF707FD2021DC
:101AA4004FF09040FFF71DF8002323702378012B9B
:101AB400C6D1104B104A1B7813700B490F4B0448C6
:101AC400FEF7F4FC00232370BAE700BF00100240C5
:101AD400340000200000211000080048700000209D
:101AE4000044004000640040E00000206800002042
:101AF4002C000020080000205C000020640000206E
:101B0400024B034A0021FEF71EBD00BF68000020FF
:101B1400F8000020B0F5005F10B503D10D4B012291
:101B24001A7010BD2028F9D04028F7D0B0F5807F76
:101B34000ED1084B012420214FF090401C70FEF779
:101B4400D0FF21464FF09040BDE81040FEF7C9BFDA
:101B540010BD00BF2C0000200C4B07B59A6942F061
:101B640001029A619A6902F001020092009ADA690C
:101B740042F08052DA61DB6903F08053019307205D
:101B8400019BFEF771FE03B05DF804FB00100240F8
:101B940010B5044688B01422002103A800F006F909
:101BA4002268174B9A4229D103F5D63303A9DA697F
:101BB40042F00072DA61DA6902F000720192019A6D
:101BC4005A6942F400325A615B6903F400330293A8
:101BD400029B4FF4C05303930223049303230693FD
:101BE4004FF0904009230793FEF7A6FE002214202D
:101BF4001146FEF74BFE1420FEF77CFE08B010BD24
:101C04000064004010B5044688B01422002103A8E3
:101C140000F0CCF82268124B9A421ED103F5E63349
:101C240003A9DA6942F40032DA61DA6902F40032B3
:101C34000192019A5A6942F400325A615B6903F4D1
:101C440000330293029B0C230393022304934FF06B
:101C5400904007230793FEF76FFE08B010BD00BF46
:101C6400004400407047FEE7FEE7FEE7FEE77047EA
:101C740070477047FEF7E2BA0148FEF7F7BC00BFB1
:101C84003400002008B52020FEF730FF4020FEF786
:101C94002DFF4FF48070BDE80840FEF727BF4FF4D6
:101CA4000050FEF723BF00001549D1F8883043F4F3
:101CB4007003C1F88830134B1A6842F001021A60AD
:101CC4005868114A02405A601A6822F0847222F459
:101CD40080321A601A6822F480221A605A6822F448
:101CE400FE025A60DA6A22F00F02DA62186B074ABF
:101CF40002401A6300229A604FF000638B607047C1
:101D040000ED00E0001002400CC07FF8CCFC00FFA6
:101D1400DFF834D0002103E00C4B5B58435004310E
:101D24000B480C4B42189A42F6D30B4A02E00023AC
:101D340042F8043B094B9A42F9D3FFF7B5FF00F090
:101D440011F8FFF7D1FDFEE7000001201C1E00087A
:101D540000000020100000201000002014010020CA
:101D6400FEE7000070B50D4E0D4CA41BA410002519
:101D7400A54209D10B4E0C4C00F020F8A41BA41072
:101D84000025A54205D170BD56F825309847013588
:101D9400EEE756F8253098470135F2E7141E00089F
:101DA400141E0008141E0008181E000802440346EE
:101DB400934200D1704703F8011BF9E7F8B500BF5F
:101DC400F8BC08BC9E467047F8B500BFF8BC08BC18
:041DD4009E46704770
:101DD80002030405060708090A0B0C0D0E0F101064
:101DE8000102030405060708090A0B0C0D0E0F1063
:101DF80001040802000000000000000001020304C2
:0C1E0800060708090000000001020304A6
:041E1400B901000808
:041E18009501000828
:101E1C0001000000100000000700000000127A0012
:0400000508001D15BD
:00000001FF
